:020000040000FA
:10000000608B0020A56B0000F7BF0300D56B0000DC
:10001000D56B0000D56B0000D56B00000000000020
:10002000000000000000000000000000016B000064
:10003000D56B000000000000A96A0000B564000054
:10004000656B0000A9D50300656B0000656B0000BF
:10005000656B0000656B0000656B0000656B000060
:1000600071D50300656B0000656B00008FD5030040
:10007000656B0000656B0000656B0000656B000040
:10008000656B0000656B0000656B0000656B000030
:10009000656B0000656B0000656B0000656B000020
:1000A000656B0000656B0000656B0000656B000010
:1000B000656B0000656B0000656B0000656B000000
:1000C000656B0000656B0000656B0000656B0000F0
:1000D000656B0000656B0000656B0000656B0000E0
:1000E000656B0000656B0000656B0000656B0000D0
:1000F000656B0000656B0000656B0000656B0000C0
:100100007BB972B90029BEBF00204FF0004106E064
:1001100008BF00281CBF6FF000414FF0FF3000F017
:10012000B9B9ADF1080C6DE904CE002909DB002B4B
:100130001ADB00F04DF8DDF804E0DDE9022304B03D
:100140007047404261EB4101002B1BDB00F040F89F
:10015000DDF804E0DDE9022304B0404261EB410137
:10016000524263EB43037047524263EB430300F098
:100170002FF8DDF804E0DDE9022304B0404261EB32
:1001800041017047524263EB430300F021F8DDF870
:1001900004E0DDE9022304B0524263EB43037047FD
:1001A00053B94AB9002908BF00281CBF4FF0FF31DE
:1001B0004FF0FF3000F06EB9ADF1080C6DE904CEE0
:1001C00000F006F8DDF804E0DDE9022304B0704732
:1001D0002DE9F047089D04468C46002B40F08380B3
:1001E0008A42174647D9B2FA82F242B1C2F12000E0
:1001F00024FA00F09140974040EA010C94404FEA05
:100200001748230CBCFBF8F61FFA87FE08FB16C143
:1002100043EA014306FB0EF1994209D9FB1806F1A6
:10022000FF3080F01981994240F21681023E3B4432
:100230005B1AA4B2B3FBF8F008FB103344EA0344A2
:1002400000FB0EFEA64509D93C1900F1FF3380F0F2
:100250000581A64540F2028102383C4440EA06404E
:10026000A4EB0E0400261DB1D4400023C5E90043D1
:100270003146BDE8F08702B9FFDEB2FA82F2002A09
:1002800050D1CB1B4FEA174E1FFA87F80126B3FB5C
:10029000FEFC210C0EFB1C3341EA034108FB0CF36E
:1002A0008B4207D979180CF1FF3002D28B4200F251
:1002B000E9808446C91AA3B2B1FBFEF00EFB10110F
:1002C00043EA014408FB00F8A04507D93C1900F1B6
:1002D000FF3302D2A04500F2D9801846A4EB0804EF
:1002E00040EA0C40BFE78B4209D9002D00F0B180F5
:1002F0000026C5E9000130463146BDE8F087B3FA73
:1003000083F6002E4AD18B4202D3824200F2B8809B
:10031000841A61EB030101208C46002DA8D0C5E9A9
:10032000004CA5E7C2F1200320FA03F6974001FA3A
:1003300002F04FEA174ED9403043030CB1FBFEF6F2
:100340001FFA87F80EFB161143EA014306FB08F17A
:10035000994204FA02F409D9FB1806F1FF3C80F037
:100360008D80994240F28A80023E3B445B1A81B202
:10037000B3FBFEF00EFB103341EA034100FB08F330
:100380008B4207D9791800F1FF3C73D28B4271D9A7
:1003900002383944CB1A40EA064678E7C6F1200C09
:1003A00003FA06F422FA0CF31C4320FA0CF701FAC4
:1003B00006F34FEA144E21FA0CF11F433B0CB1FB3C
:1003C000FEF91FFA84F80EFB191143EA014109FBFB
:1003D00008FA8A4502FA06F200FA06F308D961180B
:1003E00009F1FF3048D28A4546D9A9F102092144D2
:1003F000A1EB0A01BFB2B1FBFEF00EFB101147EA00
:10040000014700FB08F8B84507D9E71900F1FF31AB
:100410002ED2B8452CD90238274440EA0940A7EB30
:100420000807A0FB02894F45C64649461AD317D094
:100430005DB1B3EB0E0267EB010707FA0CFCF2406B
:100440004CEA0202F740C5E9002700263146BDE824
:10045000F0872E4628460BE70646E9E61846FDE6F5
:100460004345E5D2B8EB020E69EB04010138DFE742
:100470000846D2E760468DE78146B9E7664675E7EC
:1004800030464AE7ACF1020C394413E702383C44E9
:1004900024E700BF704700BFF8B515460A4A1C465E
:1004A00056682EB101B02A46B446BDE8F040604718
:1004B00000208DF80000684603F066F99DF8000002
:1004C000281A20700020F8BD00000020002819D054
:1004D00003781349134A13B1012B0ED011E00379AD
:1004E000012B00D06BB943790BB1012B09D1836883
:1004F000643B8B4205D2C0680EE00379012B02D029
:100500000BB10020704743790BB1012BF9D1C368BF
:10051000643B8B42F5D280689042F2D8012070474C
:100520003D860100FF1FA10710B5054C206810B1E2
:10053000804700202060BDE8104001F04FBC000063
:10054000080000202DE9F0410E46050004D000F01F
:1005500041F8074600240AE06FF01500BDE8F0817D
:10056000204600F03DF8807838B1641CE4B2BC420B
:10057000F6D300BF6FF00B00F0E72746FF2CF9D051
:10058000204600F02DF8044603F0ACFA074801F0CD
:1005900001FCE070202805D001206560A070377054
:1005A0000020DBE76FF02200D8E700002B380000C6
:1005B00010B5820702D06FF00D0010BD044A117013
:1005C000506018B14A01002103F0C2FC002010BDA8
:1005D0000C00002001480078704700000C0000204B
:1005E00004490A78904201D300207047496801EB22
:1005F000401070470C000020094910B503464A68B6
:100600000020097807E000BF02EB4014E4789C4228
:1006100004D0401CC0B28842F6D3FF2010BD0000B9
:100620000C0000202DE9F8431546044600F10802AD
:10063000C81C4142DFF89CC01F46281A0023089EB0
:10064000BCEB050C9B4104D240F2E451702002F057
:10065000FFFC214B994204DD40F2E551702002F08D
:10066000F7FC1E4B994204DA40F2E651702002F08A
:10067000EFFC1B498842A8BF1A4903DA0028B8BF1B
:10068000174900DA4018214602F06EF9206820F080
:100690007F41E819C01C2160002E08BF7A3008D0C5
:1006A000012E08BF453004D040F28961702002F06D
:1006B000CFFC6A46211D02F057F99DF90000002881
:1006C0006068C4BF401C606020F07F406060BDE88F
:1006D000F8830000FF7F841E0020A10700E05EF881
:1006E0000080841E00807BE170B50546202A27D05B
:1006F00019481A4C00EB831C0CEB420004EB8303FB
:10070000202922D00CEB410140784C7848702046DB
:1007100001460CEB4100914205704078F8D193F806
:100720002220202A1ABF0CEB4202547083F8214089
:1007300020220CEB410C8CF8012083F8221070BDB4
:1007400040F28921702002F083FC93F82040407829
:1007500083F82000DBE70000000A0020800A002068
:100760002DE9F34F87B00446002002909E48089F71
:100770009E4E00EB8700039090F820502020E94621
:100780000DF104088DF8000006F5207A202D18BF21
:100790000AEB871B32D000BF05EB850006EB80001B
:1007A000011D80682268101A0002C21700EB126057
:1007B000001223D46089D0B14889C0B9084600F03E
:1007C000D9FC05AA04A902F0CFF89DF9140000286D
:1007D000CCBF0120002000F1330104982268101AD8
:1007E0000002C21700EB12600012884206DB0BEB1E
:1007F000450089F800504578202DCDD199F80000AA
:1008000088F80000A146202D1CBF794800EB871B0B
:1008100000F0E58005EB850106EB810AD9F804209C
:10082000DAF804104846891A0902CA1701EB126166
:100830000AF1040709121FD47989002900F0CF803A
:100840004189002940F0CB8000F094FC05AA04A95E
:1008500002F08AF89DF914000028CCBF0120002086
:1008600000F1330104983A68101A0002C21700EB35
:100870001260001288427DDA88F800509AF8100061
:1008800099F80C10884205D90BEB45004578202DCE
:10089000C0D1A4E09DF80400D4E9002100EB800061
:1008A00006EB8000891A806820F07F42084420F01F
:1008B0007F40C4E90020012002904B4890F82B00B3
:1008C00018B109B00020BDE8F08F0398DDF8208052
:1008D0006F4690F8205020200DF1040A8DF800009A
:1008E000202D1CBF424800EB881930D005EB850055
:1008F00006EB8000011D80682268101A0002C217F2
:1009000000EB1260001222D46089D0B14889C0B9CE
:10091000084600F02FFC05AA04A902F025F89DF96D
:1009200014000028CCBF0120002000F133010498FE
:100930002268101A0002C21700EB126000128842EF
:1009400005DB09EB45003D704578202DCED1387888
:100950008AF800002746202D1CBF254800EB881B85
:100960003DD005EB850106EB8109384609F1040805
:100970007A6800E033E0D9F80410891A0902CA172E
:1009800001EB126109121DD4B8F80A1039B341897C
:1009900029BB00F0EFFB05AA04A901F0E5FF9DF9D2
:1009A00014000028CCBF0120002000F1330104987E
:1009B000D8F80020101A0002C21700EB12600012D3
:1009C00088420CDA8AF8005099F81010387B81427E
:1009D0007FF660AF0BEB45004578202DC1D1029822
:1009E00009B0BDE8F08F0000800A002080070020D9
:1009F000000A00202DE9F04F044647480E4600EB60
:100A00008600464F90F82050202083B098469246AA
:100A1000107007F52079202D18BF09EB861B31D007
:100A200005EB850007EB8000011D80682268101A25
:100A30000002C21700EB1260001223D46089D0B10B
:100A40004889C0B9084600F095FB01AA694601F043
:100A50008BFF9DF904000028CCBF0120002000F18D
:100A6000330100982268101A0002C21700EB1260CE
:100A70000012884206DB0BEB45008AF800504578EF
:100A8000202DCDD19AF8000088F80000202D18BF45
:100A900009EB861A3CD005EB850107EB81096168FB
:100AA000D9F804202046511A0902CA1701EB126135
:100AB00009F1040609121BD4718949B3418939BB74
:100AC00000F058FB01AA694601F04EFF9DF90400B1
:100AD0000028CCBF0120002000F1330100983268CB
:100AE000101A0002C21700EB1260001288420FDADF
:100AF00088F8005099F81000217B884203D803B091
:100B00000020BDE8F08F0AEB45004578202DC2D1CA
:100B100003B00120BDE8F08F800A0020800700208C
:100B20002DE9F74F4FF0000898B016460D46C34622
:100B300001F0A8FC0446012D18BF022D05D040F697
:100B40006D114FF0700002F083FAFF490120086038
:100B5000FE498968086000200690401E0890FC4904
:100B600006EB860001EB8000001D09AF0FC887E887
:100B70000F0009A800F0FEFA0790F548BDF82E9086
:100B8000B0F81C03ADF83400B9F1000F14BF4FF0FA
:100B9000010A4FF0000A09981290BAF1000F09D02B
:100BA000EC4890F82C0028B902F0EEF9002808BFB4
:100BB000012700D00027E84800221492007816464A
:100BC000012818BF032843D1E348B0F80280A8EBFE
:100BD00009001490C1453BD203A8059017A81090B6
:100BE000079908F103004242DFF870C3081A002396
:100BF000BCEB010173EB030104D240F2E45170201D
:100C000002F026FAD6498A4204DD40F2E55170200E
:100C100002F01EFAD3498A4204DA40F2E65170200B
:100C200002F016FAD0498842A8BFD04903DA00285A
:100C3000B8BFCD4900DA4018109A059901F094FE2A
:100C40000398099920F07F400390081A20F07F4212
:100C5000002F18BF322604D19DF83400002818BF99
:100C60000226B4F1807F08D00998001B0002C1174A
:100C700000EB11600012012802DA042118980BE041
:100C800047B1B44890F82D0020B19DF83400061CFF
:100C900018BF022620460121B9F1000F02D0149B93
:100CA0001E2B02DA9DF8343013B14FF0010B491EB0
:100CB00001EB060CA8499DF8356009781591099952
:100CC000891A21F07F43191A09024FEAE17E01EBEC
:100CD0001E610912614517DB002A18BF0993099E9E
:100CE0001097002701F0C8FA301A0002C11700EB74
:100CF000116000123E2840DA012D21D0701E10999B
:100D000020F07F4021B32EE082B1002E04BF159960
:100D100003290BD02FB99DF83410002918BFACF16E
:100D2000020C00228DF834209046C8E70FBB9DF8D6
:100D30003410F1B100218DF83410ACF1020CBEE793
:100D4000B4F1807F20D140F6E601702002F080F9F6
:100D5000B4F1807F07D0211A0902CA1701EB126192
:100D60000912042903DD044601F08CFA0CE0002985
:100D70000ADD1BB00020BDE8F08F701E20F07F441C
:100D8000204601F07FFA5746B4F1807F28D00998B9
:100D9000DDF828C0001B8BF00103754A20F07F406E
:100DA000ACEB040C2CF07F4C834298BFB0F5800F65
:100DB000DFD26245DDD3204602F028FF674A07995B
:100DC000531C0E1AB6EB930F24BFA0EB010CBCEB27
:100DD000930F10D3B24208D2101A0844461C0AE0FE
:100DE00040F60521702002F033F962452CD2511AE9
:100DF0000844401C46425748807F50B32846454629
:100E00004FF0000BD846012805D0022001F082FCEB
:100E1000012001F07FFCA9452CD2A6EB05014FF083
:100E200001034FF003024FF0020001F0ABFB00287A
:100E300008BF4FF00108B9F1000F35D00123A6EB30
:100E400009010322184623E040F6E521702002F054
:100E5000FFF8C14534BF40464846BBF1000F14BF00
:100E600000211E210844B042C8DB40F61821702042
:100E700002F0EEF810D90123A6EB0901032218466F
:100E800001F080FB28B37DB1711B012303220220F6
:100E900001F078FBE8B107E055EA090004D04FF40F
:100EA0001561702002F0D4F801230322314600209E
:100EB00001F068FB68B10125B8F1000F03D012986A
:100EC00009908DF834B0DFF8AC80BAF1000F0ED184
:100ED00009E0022001F01EFC012001F01BFC1BB008
:100EE0000020BDE8F08F1B4890F82D0000B14FB3F3
:100EF000DFF860A09AF82C0018B101F013FF8AF80F
:100F00002CB007B3A4F1320020F07F414FF4002051
:100F1000C8F8000000230322052001F033FB78B35A
:100F20004FF08044052001F0C9FC1349C1F81005B9
:100F3000C1F814451149E0120860064C94F82D00E0
:100F4000E8B35BE01DE021E008050040140000204C
:100F500080070020800A002016000020FF7F841EEA
:100F60000020A10700E05EF80080841E00807BE185
:100F7000FFFF3F0008F5014098F0014004F50140F3
:100F800033E0DFF8B4A09AF82C0048B32A4C94F868
:100F90002D0050B14FF40020C8F80000052001F0EA
:100FA000B9FB01F027FF84F82DB00DF11808234894
:100FB00098E8FE10C0F80013C0F8042300E019E020
:100FC000C0F80833C0F80C43C0F81053C0F81463DD
:100FD000C0F81873C0F81CC31BB00120BDE8F08F27
:100FE00001F0BCFE8AF82C508BE740F249317020AA
:100FF00002F02EF801F0F0FE84F82D50A6EB090067
:10100000A0F11901002904DC40F64221702002F011
:101010001FF803220123104601F0B4FA38B1084842
:101020008068C0F800B00748C0F800B0BDE740F6DF
:101030004D21702002F00CF8800A0020800700206B
:10104000140000200805004010B5154C94F82F003E
:10105000202818BF10BD94F82E2004EB820090F8D1
:101060002010202917D0DFF83CC00CEB821303EBD3
:1010700041035B7880F82030012380F8233084F826
:101080002B3084F82F10022000F0B2F8002084F8F2
:101090002A00A07710BD40F29631702001F0D8FFF1
:1010A000800A0020000A00202DE9F05FDFF8B480FC
:1010B00098F82E5008EB850090F82140202C08BFAE
:1010C000BDE8F09FDFF8A0A0DFF8A090A9F5207B95
:1010D00009EB8517072617F8140001280ED00428FD
:1010E00008BF02260AD005280CBF0326062805D013
:1010F00040F6B3014FF0700001F0AAFFBAF1000F03
:1011000018BFAFF30080EFF3108072B607EB440115
:101110004A7808EB850181F8212091F82220A2422B
:1011200004BF202281F82220A8B12A4621460120AE
:1011300000F05EF804EB840031465BF82020204686
:10114000904798F82E5008EB850090F82140202C0D
:10115000BED1BDE8F09F0648002818BFAFF300805D
:1011600062B6E2E7800A002000000000000A0020CA
:101170000000000010B50446006802F047FD01467B
:10118000608994F90820DFF854C01044C21C881804
:101190000023BCEB010173EB030104D240F2E451E4
:1011A000702001F055FF0E498A4204DD40F2E551FE
:1011B000702001F04DFF0B498A4204DA40F2E651FB
:1011C000702001F045FF08498842A8BF074903DAAB
:1011D0000028B4BF044910BD401810BDFF7F841E15
:1011E0000020A10700E05EF80080841E00807BE103
:1011F000DFF854C010B500230CEB821C07281ED268
:10120000DFE800F0050505050404040001230CF8DF
:101210001100002B08BF10BD0C4800EB820292F8B1
:10122000220020280EBF82F821100CEB40004170F4
:1012300020200CEB4103587082F8221010BD40F2C0
:101240005F21702001F004FF000A0020800A0020C6
:101250002DE9F34F83B05C48049900EB81000190C5
:1012600090F8204003982546012818BF022805D091
:1012700040F689214FF0700001F0EAFE0027202D92
:101280004AD0514800910026807F002808BF0226DE
:1012900000F0F2FFDFF838A104EB84010AEB8101D2
:1012A000DFF828914A688968121A091A22F07F42E9
:1012B00021F07F41964298BFB2F5800F01D2894557
:1012C00028D2444A009902EB811B22460BEB4201D3
:1012D0004C78202C16D004EB84010AEB810CDCF84E
:1012E0000480DCF808C0A8EB000828F07F48ACEBCD
:1012F000000121F07F41464598BFB8F5800FE4D248
:101300008945E2D3202A05D020210420009BFFF745
:10131000EBF90446AC4215D12F48002818BFAFF3B3
:10132000008000F0A9FF284C94F8301020290DD03F
:10133000E168821C511A0902CA1701EB12610912F5
:10134000002903DD05B00020BDE8F08F202D0DD071
:101350002A460399FFF7E4FB58B3019880F82370FD
:1013600084F8305005B00120BDE8F08F94F82C00CF
:1013700018B101F0D7FC84F82C7094F82D0050B10E
:1013800016494FF400200860052001F0C3F901F070
:1013900031FD84F82D70042001F0BCF901F016FA3B
:1013A000202084F830000E48806807600D480760F0
:1013B000D8E72A4620210420049BFFF795F905B0C1
:1013C0000020BDE8F08F0000800A0020FFFF3F00F2
:1013D00080070020000A00200000000008F50140FE
:1013E00014000020080500402DE9F04F734E074619
:1013F00087B096F82F008A4620285AD096F82F00FA
:1014000006F10C0400EB8000A6F5407909EB80089A
:1014100020208DF8000096F82E0003AA06EB80002D
:1014200001A990F82050306902903068384401F0EA
:101430009BFA9DF90C00002802DD0198401C0190E8
:10144000D8F8080001994318642F37D35C4900226B
:10145000C91B72EB020031D3D8F80400181A20F02F
:101460007F40B0F5800F29D223F07F406060534861
:1014700084F80CA090F82E10EA46202D1CBF51488D
:1014800000EB811B4AD005EB850009EB8008606802
:10149000D8F804202146101A0002C21700EB12608F
:1014A00008F10406001226D4708988B3488948B12F
:1014B00034E040F65C31702001F0CAFD07B0012035
:1014C000BDE8F08F2046FFF755FE05AA04A901F0FC
:1014D0004BFA9DF914000028CCBF0120002000F138
:1014E000330104983268101A0002C21700EB126030
:1014F0000012884212DA8AF8005098F81010207B07
:10150000814206D80298606007B00320BDE8F08FE2
:1015100004E00BEB45004578202DB4D1274DA86899
:10152000B0F1FF3F16D000F0A7FEA968081A00022C
:10153000C11700EB11600012022805DC0298606000
:1015400007B00220BDE8F08F052001F0E3F84FF06E
:10155000FF30A86095F82E309DF800202021202A29
:1015600013BF052005EB830090F82000FFF7BCF8BF
:1015700095F82E20134901EB821195F82F2001EBED
:1015800042014870286838442860012085F82B0003
:10159000687E012805D12869401E20F07F4000F0B8
:1015A0000BFF9DF80000202803D00748407801F089
:1015B0001FFE07B00020BDE8F08F0000800A002069
:1015C000FF1FA107000A00201400002030B52A4A9E
:1015D00083B092F82F10202945D092F82F10A2F551
:1015E000407301EB810103EB810C92F82E1092F80D
:1015F0002E4002EB810191F82010A2F1800505EB4D
:101600008414202934D001EB810503EB85052D7C62
:10161000854284BF04EB41014978F2D801EB810196
:1016200003EB8101DCF8080049681568081A00021C
:10163000C11700EB1160001212D402F0E7FA044661
:101640006A4601A901F090F99DF900000028C8BF81
:10165000241A05F16400844222BF601B03B030BD30
:10166000002003B030BD40F62631702001F0F0FCC0
:1016700003B04FF0FF3030BD800A00200246DFF893
:1016800054C010B50023BCEB0202084473EB030204
:1016900004D240F2E451702001F0DAFC0E4A91428B
:1016A00004DD40F2E551702001F0D2FC0B4A91427A
:1016B00004DA40F2E651702001F0CAFC0849884281
:1016C000A8BF084903DA0028B4BF054910BD401877
:1016D00010BD0000FF7F841E0020A10700E05EF81F
:1016E0000080841E00807BE1074991F8302082420F
:1016F00004BF4868704700EB8000044901EB80009C
:10170000001DFFF737BD0000800A00208007002081
:101710000B4910B591F82F0020280CD091F82F001C
:1017200091F82F10074A01EB810152F82120BDE802
:1017300010400421104740F69701702001F088FC0A
:10174000800A00208007002070B5604E60490125A6
:1017500006F5407408287CD2DFE800F00457889A28
:10176000B23E9FA494F82C0018B901F0F7FA84F85F
:101770002C50E08A10B101F007FC88B1FFF764FC3F
:1017800084F82950A168B1F1FF3F05D0012303225D
:10179000052000F0F7FE40B1607E012810D109E07D
:1017A00040F64F01702001F053FC40F654017020C8
:1017B00001F04EFC2069401E20F07F4000F0FCFD4F
:1017C00094F82F0094F82F1001EB810156F8212096
:1017D000BDE8704001211047FFF736FC4FF0FF30A5
:1017E000A06094F8290058B194F82F0094F82F10B5
:1017F00001EB810156F82120BDE870400621104719
:1018000040F66401702001F023FCFFF71DFC84F812
:10181000285001F0B9FB18B194F82C0028B108E069
:1018200040F67301702001F013FC01F097FA84F880
:101830002C5094F82D0058B126494FF40020086030
:10184000052000F067FF01F0D5FA002084F82D0094
:1018500000E035E094F82F0094F82F1001EB81019F
:1018600056F82120BDE870400021104700F0F8FF35
:10187000E08A10B101F088FB28B1174800780328EE
:1018800008BF657770BD40F67D01702001F0E0FB78
:10189000124805608868056070BD0878BDE8704032
:1018A00001F0A6BCFFF7D0FB94F82F0094F82F109E
:1018B00001EB810156F82120BDE870400521104759
:1018C00040F68F01702001F0C3FB0000800700206C
:1018D0001400002008F50140160000200805004013
:1018E0002DE9F34FFF4893B088460068FE4DC005D0
:1018F000C00D0ED0103840B20028B8BF00F00F0065
:1019000000F1E020ACBF90F8000490F8140D4009FD
:101910000DD098F800004FF0000B002818BF0128E8
:1019200018D040F23C714FF0700001F091FB95F837
:101930002F004FF0010B202807D098F8000048B185
:101940004FF4E761702001F083FB40F235717020A5
:1019500001F07EFBE54C24B1002140F23F70AFF373
:1019600000801398E24900EB800001EB80004FF00B
:101970000109019024B1002140F24770AFF30080CB
:10198000B9F1000F0AD000BF95F82E604FF0000AA1
:1019900085F82BA0BBF1000F07D02EE0D54800281A
:1019A00018BFAFF3008062B6EEE73746012020EAA9
:1019B0000706D148402200EB871100EB861002F0A9
:1019C0004DFA24B100214FF4B560AFF3008005EB70
:1019D000870105EB8600096A016224B1002140F20B
:1019E000AC50AFF3008024B1002140F25170AFF34E
:1019F000008095F82B000028BCD124B1002140F2D2
:101A00005B70AFF3008000F037FC074698F80000E9
:101A10000DF10809002898F80B008DF8150098F8CA
:101A20000A108DF81410B8F80810ADF812100090D4
:101A3000D8F8043013D000224846FEF7F3FD07978C
:101A4000BDF812000FAA0EA900F08EFF95F82F0026
:101A500020280AD02869401D20F07F401EE048461B
:101A6000D8F80C20FEF7DEFD4BE007980930009017
:101A7000BDF8120028B101F087FA10B90098323091
:101A800000909E4841780E98814298BF009803D9F3
:101A9000091A00980844009020F07F40DDE90221F7
:101AA000891A0290084420F07F400390314648464E
:101AB000FEF756FE98F80B000090B946B8F80810EB
:101AC0000EA8D8F80430D8F80C20FEF7ABFD029829
:101AD000039AA0EB090020F07F40A2EB09020F99C6
:101AE00022F07F42B0F5800F01D2914209D2DDE9A8
:101AF0000221891A781827F07F4220F07F40CDE933
:101B0000022024B1002140F26270AFF300807A4AD3
:101B10003946DDF84C9002EB861702A817F8192019
:101B2000012A18BF022A3DD1029ADDF80CC0A2EBAF
:101B30000102734B22F07F42ACEB010121F07F41A7
:101B4000022A69D3B2F5800F66D28B4264D34FF07C
:101B5000010A0EAB0DAA3146FEF74CFFF0B39DF81B
:101B600034109DF8382033468A4261D00520FEF7B4
:101B7000BBFD00BF07EB490148709DF834002028E9
:101B800003BF05EB860080F8209080F823A007EBC8
:101B9000400018BF80F80190324649465FF00300CC
:101BA000FFF726FB05EB860090F8237024B1002197
:101BB00040F26970AFF300805248002818BFAFF3BD
:101BC0000080EFF3108972B624B1002140F26F70EB
:101BD000AFF3008095F82B00002800E024E07FF4AC
:101BE000C9AE24B1002140F27770AFF300800DF14F
:101BF000040EBAF1000F9EE80F1000F1040080E817
:101C00000E1041D024B1002140F28470AFF3008067
:101C1000BBF1000F2BD115E0324649460420FFF7F7
:101C2000E7FA4FF0010ABDE7324649460420B7E71C
:101C3000202919BF07EB4100407805EB860090F89A
:101C4000200097E79FB195F82F0020280FD124B1ED
:101C5000002140F28970AFF3008031460220FFF787
:101C6000F7FA20B998F80000D0B301285ED024B16B
:101C7000002140F2A670AFF3008085F82E600120AD
:101C800085F82B004FF0010A24B1002140F2AF701B
:101C9000AFF30080B9F1000F51D024B1002140F220
:101CA000B370AFF30080BAF1000F11D095F82E0099
:101CB00005EB800090F82100202809D024B10021F4
:101CC00040F2BA70AFF300800F48407801F090FA0C
:101CD00024B1002140F2BF70AFF30080504615E000
:101CE00017E0000004ED00E0800A00200000000082
:101CF0008007002000000000000A002016000020DD
:101D0000FFFF3F00000000001400002015B0BDE8F8
:101D1000F08F24B1002140F29170AFF3008095F86C
:101D20002E2004201399FFF763FAABE7002C3FF451
:101D300021AE002140F29C70AFF300801AE6034808
:101D4000002818BFAFF3008062B6A6E700000000CD
:101D500010B5202811D20E4991F82E30A1F1800241
:101D600002EB831C1CF810303BB191F82E3002EBD3
:101D7000831212F81020012A01D0002010BD91F822
:101D80002E2001460020FFF733FA012010BD00008D
:101D9000800A002070B5054601F0E4F80D4890F87F
:101DA0002E200024803800EB821000BF10F81410A1
:101DB00029B1611CCCB2202CF8D3202070BD06497B
:101DC00004EB840041F8205021460120FFF710FA6F
:101DD000204670BD800A0020800700202DE9F041D8
:101DE00000F04AFA054600F0F1FC484CA068B0F15A
:101DF000FF3F1CBF4FF0FF30A060A07FA8B9D4E91F
:101E00000301081A0002C11700EB116000124FF421
:101E10000C7101F028FF21690844281A0002C1173B
:101E200000EB11600012C00F0CD0607ED0B100F04A
:101E30002FFB00BF94F82A00D0B140F24B41702034
:101E400001F006F994F82F0094F82F10304A01EBB6
:101E5000810152F821200821904740F23A41702038
:101E600001F0F6F8E81C20F07F4000F00BFAE1E703
:101E7000012684F82A6094F82F00202825D094F8B1
:101E80002F70202084F82F0084F83000002584F87B
:101E9000285084F829501F4825600078022816BF72
:101EA000032801200020207794F82E804FF00100B5
:101EB0004146FFF7CDF90028F8D0174800EB88100D
:101EC00010F81700022805D009E040F24E417020BA
:101ED00001F0BEF8424639460620FFF789F984F83A
:101EE0002B6004EB880090F82100202803D00B48D9
:101EF000407801F07DF9207F002808BFBDE8F0811F
:101F000000F0AEFC25776577BDE8F081800A0020FF
:101F10008007002016000020000A00201400002086
:101F200030B5304C83B094F82F10202908D0A16828
:101F3000B1F1FF3F09D040F6C221702001F088F8CE
:101F400040F6C121702001F083F86168DFF898C085
:101F50000B180022BCEB010172EB020104D240F22B
:101F6000E451702001F074F82049884204DD40F209
:101F7000E551702001F06CF81D49884204DA40F206
:101F8000E651702001F064F81A488342A8BF1A484D
:101F900003DA002BB8BF174800DA1B18184601AA4D
:101FA000694600F0E1FC9DF904000F28CCBF012038
:101FB00000200099084420F07F41A16094F8290096
:101FC000002804BF03B030BD01230322052000F028
:101FD000D9FA00281CBF03B030BD40F6CA217020DA
:101FE00001F036F8800A0020FF7F841E0020A10740
:101FF00000E05EF80080841E00807BE170B51E4C1E
:10200000202184F8201084F8211084F82210002068
:1020100084F8230084F82E0084F82F10421EA2605A
:102020002060A07784F8280084F829002077607762
:1020300084F83010114984F82C0084F82D000870C1
:1020400048704880A4F182011022887001F8040FC2
:10205000521EFAD10A4D012684F82A60FF2028700A
:10206000084801F0A7F8687001F002F9A86000F0D4
:102070003FFC84F8316070BD800A0020160000200B
:1020800014000020A91000002DE9F041244CD4F8E0
:1020900004034FF0000510F4803F4FF400664FF04A
:1020A000E0271CBFD4F8400100280BD04FF480304B
:1020B000C4F80803C4F84051C7F880624FF0040028
:1020C000FFF742FBD4F8040310F4003F1CBFD4F820
:1020D000440100280BD04FF40030C4F80803C4F8C2
:1020E0004451C7F880624FF00500FFF72DFBD4F88C
:1020F000040310F4802F1ABFD4F848010028BDE86B
:10210000F0814FF48020C4F80803C4F84851C7F8A0
:102110008062BDE8F0414FF00600FFF715BB0000FC
:1021200000B000402DE9F0413A4D287804286CD0E9
:10213000E81C0122017859B1012908BF6A7002D058
:10214000697800295CD002210170407800F0E2FA41
:10215000314CD4F804034FF0000810F4002F4FF472
:1021600080764FF0E0271CBFD4F84C01002808D03F
:102170004FF0030000F0CEFAC7F880620320FFF7AB
:10218000E3FAD4F8040310F4802F1CBFD4F84801FC
:10219000002808D04FF0020000F0BCFAC7F88062B7
:1021A0000220FFF7D1FAD4F8040310F4003F1CBF5B
:1021B000D4F84401002808D04FF0010000F0AAFA3A
:1021C000C7F880620120FFF7BFFAD4F8040310F4C7
:1021D000803F1ABFD4F840010028BDE8F0814FF0DD
:1021E000000000F097FAC7F8806204202870C5F854
:1021F0000880C4F80082BDE8F0410020FFF7A4BACF
:102200004FF465716C2000F023FFBDE8F04107201A
:10221000FFF79ABA2000002000800040012213023C
:102220004FF0E0210020C1F8803101F5C071BFF30B
:102230004F8FBFF36F8FC1F800310C494A60431EC6
:10224000C1F808330A4B1860C1F840011B1D186023
:10225000C1F844011B1D1860C1F848011B1D18601E
:10226000C1F84C010A610349487070470080004082
:1022700040850040200000200148006870470000B1
:1022800004B500402DE9F05F414E0446F71E96F874
:1022900000C0F868BCF1010F04BFA042BDE8F09F88
:1022A0004FF040413B4A11603B496FF48023C1F835
:1022B00008333A4A4FF00005BCF1000F57D06FF4D5
:1022C000A023C1F848331560C1F84451D1F8482122
:1022D0004FF0E0294FF00108002A04BF4FF40062DC
:1022E000C9F880224FF48033C1F80833C1F848336D
:1022F000C1F840512A4AD2F800A0A4EB0A0A2AF0F9
:102300007F4BBBF1020F3CD34FF0020ABBF5800FAD
:1023100037D2C1F84045C1F84433BCF1000F05D0B5
:102320001168411A21F07F410229F9D3C7F80880CA
:102330003D70FFF773FF1B480560001DC0F800A04B
:102340001949042008601949C1F80C80BA68C1F81D
:1023500000228101C9F88012C9F80011144A41070E
:102360001160FC60707086F80080BDE8F09FC1F8D5
:102370004833104B1D60C1F840511560C1F84451FD
:10238000A4E7C1F8405540F2CB116C2000F060FE8C
:102390002300002008F5014000B0004044B5004093
:1023A00004B50040048500401085004000800040D6
:1023B00004F5014040B500402DE9F0412B4CE168A7
:1023C000814214BF01220022DFF8A4C09CF80070F3
:1023D000022F02D0002A38D003E0002A08BFBDE84F
:1023E000F081627882B3234B4FF080421A60224B17
:1023F0009513C3F80853C3F848530026C3F8406147
:102400001E4AD2F80080A0EB080828F07F48B8F1F7
:10241000020F24D3B8F5800F21D2C3F84005C3F8CA
:1024200044532FB11368CB1A23F07F43022BF9D307
:10243000134B02214A071A60E06004208CF8010067
:102440008CF80010BDE8F08104E040F2D9116C2056
:1024500000F0FEFD40F2DD116C2000F0F9FDC3F844
:10246000406540F2E9116C2000F0F2FD20000020F0
:102470002300002008F5014000B0004004B50040F2
:1024800004F501400148C0687047000020000020AA
:102490002DE9F04133486FF48024C0F80843DFF899
:1024A000C8C0324A00219CF8003063B16FF4A02408
:1024B000C0F848431160C0F8441100BFD0F848018B
:1024C000012280B909E0C0F84843294C2160C0F8D6
:1024D00040111160C0F84411F0E74FF0E0244FF4D0
:1024E0000060C4F88002022B04D040F2F5116C2089
:1024F00000F0AEFD1F4E30681F4CC01C20F07F4026
:10250000E3681E4D98420BD03768DF1B27F07F47EA
:10251000042F05D3B7F5800F02D2FFF7B3FE1BE0FF
:102520003068181A20F07F40022813D3B0F5800FCE
:1025300010D2134B4FF080401860A26021706A6087
:10254000EA604000191F086004208CF801008CF834
:10255000002001E0A2602170A068C5F80002BDE87B
:10256000F081000000B000402300002044B500408E
:1025700040B5004004B5004020000020008000402D
:1025800008F501402DE9F047DFF874C101274FF04D
:1025900000089CF800509CF801C007287ED2DFE8B4
:1025A00000F0040404046A6A6A00564CE668B6F156
:1025B000807F04BF6478002C02D0022D05D03CE05F
:1025C0004FF40A716C2000F043FD4FEA8C0404F1D3
:1025D0008046ACF104042406A40D04F1804906F5FC
:1025E000004609F530490024012D02D0022D11D0FA
:1025F00020E0BCF1040F05D2D6F840A1BAF1000FDB
:1026000018D104E0D9F840A1BAF1000F12D14FF06F
:1026100000440FE0BCF1040F05D2D6F840A1BAF196
:10262000000F07D104E0D9F840A1BAF1000F01D1A1
:1026300044F0804414F0804FD5D1334C00F1100C9D
:1026400007FA0CFCC4F808C38000204452B10764A8
:10265000D0F840658D1B25F07F45AA4298BFB5F59F
:10266000800F43D2C0F84015012B08BFC4F804C343
:102670000120BDE8F08735B1844504D140F24B21FB
:102680006C2000F0E5FC001FC0B2012B0CBF012440
:102690000024032806D340F2251100E02BE06C2033
:1026A00000F0D6FCDFF864C000F1100307FA03F372
:1026B000CCF80833CCF8483380006044C0F840813F
:1026C0004AB1134D2E688D1B25F07F45AA4298BF55
:1026D000B5F5800F0AD2C0F84015002C18BFCCF811
:1026E0000433CCF844330120BDE8F087C0F84085BE
:1026F0000020BDE8F0874FF414716C2000F0A8FCB6
:1027000023000020200000200080004000B0004096
:1027100004B50040F8B501270024072843D2DFE8BC
:1027200000F00404040416161600214A00F11001FA
:1027300007FA01F1C2F8081381001144C1F84045BD
:10274000C1F840411B4951F820000090F8BD1A4DD6
:10275000011FCEB2297879B16A7882420CD1174A2A
:102760004FF040401060012908BFFFF757FD2C7063
:1027700013494FF08070C86006F1100007FA00F1AD
:102780001048C0F80813C0F84813B00000F18040AA
:1027900000F53040C0F84045C0F840410A4850F8C4
:1027A00026000090F8BD40F2BD216C2000F050FCE6
:1027B00000800040408100402300002008F50140D7
:1027C0002000002000B0004040B100401E496FF4DE
:1027D0008023C1F808331D481D4A90F800C000202E
:1027E000BCF1000F0AD06FF4A023C1F84833106089
:1027F000C1F84401D1F8481181B909E0C1F8483362
:10280000144B1860C1F840011060C1F84401F1E7B1
:102810004FF0E0224FF40061C2F880120E494FF0F1
:10282000FF32C1F808230D4A1060C1F84001121DA3
:102830001060C1F84401121D1060C1F84801121D5A
:102840001060C1F84C01704700B000402300002028
:1028500044B5004040B50040008000404085004045
:10286000084890F902000028B8BF704700F01F0127
:10287000012202FA01F14009800000F1E020C0F8D5
:10288000001270472000002010B507280DD2DFE8A5
:1028900000F00404040406060600064902E0001FD6
:1028A0000549C0B201EB800010BD4FF41D716C20D2
:1028B00000F0CEFB4081004040B1004010B5072839
:1028C0000DD2DFE800F00404040406060600064901
:1028D00002E0001F0549C0B201EB800010BD4FF4BB
:1028E0001D716C2000F0B4FB4081004040B10040FD
:1028F00070B51948002404210470C01E01708905B8
:10290000C160FFF78BFC01254FF0E02CEB02CCF807
:102910008031BFF34F8FBFF36F8FCCF880320F4AF7
:10292000556095600E4801680029FCD1481EC2F828
:102930000803C2F848030B480460C2F84041001D78
:102940000460C2F84441001D0460C2F84841CCF85C
:102950000031156070BD00002300002000B0004071
:1029600004B5004040B50040430B48F2376C03FB10
:102970000CF31B0C4FEA432CC1F800C0DFF838C041
:1029800003FB0C030D484CF2F72C5843400D10FB91
:102990000CFC0CEB432303F580735B1213700B6884
:1029A0001844086010781F2818BF70470020107066
:1029B0000868401C08607047F7C2FFFF6F0C0100F9
:1029C0002DE9F041164C607A002827D04FF4807131
:1029D0008D05284601F06BF980464FF48271284638
:1029E00001F065F900260746B8F1000F09D0012073
:1029F000C5F80803207920B12671E06908B1804745
:102A0000E66137B1C5F804610220C5F8080300F09B
:102A100067FA4046BDE8F04100F05AB8BDE8F081E1
:102A20003000002010B501F0ECF930B901F000FAE7
:102A300018B901F009FA002802D002490220086002
:102A400010BD0000340C004070B500F087F900F0B4
:102A50009BFA094C4FF0804530B1FFF7E3FF0120AE
:102A600028610420A07204E00320A0720120C5F8B0
:102A700004030020E07170BD3000002070B5134CDD
:102A8000A079F0B1012803D0E179401E814218DA23
:102A900000F07AFA054600F04BFBA179012902D932
:102AA000E179491CE1710DB1616900E02169411AC8
:102AB000022902DA11F1020F07DC0DB1606100E0BA
:102AC0002061BDE87040FFF7BFBF70BD300000203F
:102AD0002DE9F04706464FF080454FF486712846B1
:102AE00001F0E5F880464FF48871284601F0DFF8E0
:102AF000274C8246277804F1080001F04CF910B108
:102B00004FF4D57116E04FF0010946B1A07A0328C1
:102B100005D10420A072FFF785FFC5F810900026AC
:102B2000B8F1000F18D0C5F80C61A07A042804D0C1
:102B30004FF4DE716D2000F08BFA01F062F928B9D4
:102B400001F076F910B901F07FF908B1114806607B
:102B50000220A07200F0E6F8BAF1000F08D0C5F824
:102B60001061A07A022801D1FFF788FFC5F8149000
:102B70003FB12670A07A022801D1FFF765FF00F06F
:102B8000D1F8BDE8F0470248083001F01BB9000059
:102B900030000020340C00402DE9F0475C4C4FF031
:102BA00000080646C4F81880437882780078E072FE
:102BB00063710127A271BD0784F80780052824D21C
:102BC000DFE800F00F03051F2100A76109E000F016
:102BD000C5F80121284601F06FF80028F9D002203D
:102BE000A06101F095F8B0B100F0E8F9217E01F0A4
:102BF000030188420FD1B07950B10220C5F8040317
:102C00006AE04448ECE74448EAE74FF44C7149E095
:102C100000F0A8F960E0EF604FF4827AC5F8048113
:102C2000A069C5F8180501F0D8F840B901F0DFF83F
:102C300028B901F0F3F810B901F0FAF838B14FF003
:102C400080513648D1F84412C1F34231016001F09D
:102C5000C4F840B901F0CBF828B901F0DFF810B999
:102C600001F0E6F810B12D4810300760AF60022087
:102C7000C5F80403B07978BBD5F8040310F0020F4F
:102C80000ED0DFF89C90D9F80010C94341F300172B
:102C9000D9F8001041F01001C9F800107F1C07E0BE
:102CA00040F2F1216D2000F0D3F900BF00F0F6FAF8
:102CB0005146284600F0FBFF0028F7D000F052F9FB
:102CC0002FB9D9F8001021F01001C9F80010022026
:102CD000C5F80803C5F80481A07970B1307860B9EF
:102CE00000F052F9064600F023FA6FF0004216B1E8
:102CF000C4E9042001E0C4E904020121284600F0EF
:102D0000DBFF08B100F03AF984F80A80BDE8F087EB
:102D10003000002001000200010003003C050040DB
:102D200010ED00E010B5EFF3108472B60A48417858
:102D300029B14178491E4170417829B108E040F23B
:102D40000D116D2000F084F9807808B900F02AF99F
:102D5000002C00D162B610BD3000002010B5EFF39A
:102D6000108472B606484178491C417040780128A9
:102D700001D100F0B8FF002C00D162B610BD0000F8
:102D800030000020054810B5C17821B10021017143
:102D9000C170FFF7C7FF002010BD00003000002009
:102DA00070B50C4CE17861B90125E570E061FFF781
:102DB000D5FF00F0E9F830B1E06910B1804700209C
:102DC000E061002070BD4FF080402571C0F80453D1
:102DD000F7E7000030000020EFF3108072B60449DE
:102DE0008A78521C8A70002800D162B670470000B1
:102DF0003000002010B5EFF3108472B60A488178D5
:102E000029B18178491E8170417829B108E040F2EA
:102E100025116D2000F01CF9807808B900F0C2F887
:102E2000002C00D162B610BD300000202DE9F04129
:102E300004006FF015003CD02178042939D800290E
:102E4000617838D0002934D1A178002931D100200F
:102E500000F0F8FE002000F0E8FE4FF080484FF050
:102E6000FF31C8F808130026C8F80061C8F80461EB
:102E7000C8F80C61C8F81061144F7E70A088B88142
:102E800000F028FF012508B1FD707D70012140464A
:102E900000F012FF08B100F071F82046FFF77CFE49
:102EA0007D72002000F0C1FE4FF0E0213046C1F8F5
:102EB0000051BDE8F0810029FBD02029F9D8A17884
:102EC0002129F6D80129C2D1F3E700003000002003
:102ED0000248807A002800D001207047300000208E
:102EE000F8B51F4DE87A00280FD1287E00F00300C6
:102EF00000F0FEFE002808D0EFF3108172B6FFF755
:102F0000E7FF18B1002900D162B6F8BD0126AE7204
:102F100001B962B618204FF08044C4F80803A661D6
:102F20004FF42070ADF80000BDF80000411EADF870
:102F30000010F9D20027C4F80C71C4F810710848C9
:102F4000083000F03BFF2F70FFF77EFD6661687967
:102F500000F07F00C4F838051820C4F80403F8BD59
:102F60003000002010B5044C207E00F0030000F07B
:102F7000BFFE0028F8D010BD30000020014901201C
:102F800008707047680000204FF08040D0F80001C2
:102F900018B903480078002800D0012070470000CD
:102FA000680000204FF08040012141600021C0F8FE
:102FB0000011014801707047680000200248006855
:102FC00000F00300704700001C04004010B531B150
:102FD000012907D04FF4427105A000F00FF8D0F896
:102FE000140401E0D0F8080400F0010010BD000056
:102FF0006E72665F636C6F636B2E6800024A526884
:1030000002B11047FEE7000050000020064810B54E
:103010000021016001210160084600F090FEBDE83A
:103020001040012000F07EBEFC1F0040074810B594
:1030300001214160891EC0F808130C2000F07FFEBA
:10304000BDE810400C2000F06DBE000000C0004044
:10305000FEB5104A5568E5B1002203466E460A24C3
:1030600003E0B0FBF4F0521CD2B20028F9D1B05406
:103070000AE000BFB3FBF4F004FB1030B3FBF4F341
:10308000521ED2B23030B054002AF3D13046A84795
:10309000FEBDFEE75000002070B5174C06460D46F9
:1030A000607810B14FF0FF3070BD06B9134E62600A
:1030B0002570FFF7ABFFFFF7B9FF3046FFF7B6FE0D
:1030C0000600F1D1FEF79AFFFFF70AFF00F00FFDAF
:1030D000284600F027FE0120002D09DB05F01F0126
:1030E00000FA01F16A09920002F1E022C2F800112F
:1030F0006070304670BD000050000020603D000050
:10310000014840787047000050000020074890F9BF
:103110000000002809DB00F01F0201219140400956
:10312000800000F1E020C0F800127047500000203D
:103130002DE9F04101264FF0E02231034FF0000865
:103140004046C2F88011BFF34F8FBFF36F8F164C0C
:10315000C4F800010C2000F011FE144D2868C04393
:1031600040F30017286840F010002860C4F804639A
:1031700026607F1C02E000BF00F090F8D4F8000148
:103180000028F9D01FB9286820F0100028600848EE
:1031900005686660C4F80863C4F800810C2000F07C
:1031A000EDFD2846BDE8F08100C0004010ED00E0D4
:1031B00008C5004010B5024605200C4904E000BFD8
:1031C00001EBC0031B7933B1401EC0B2F8D24B21D2
:1031D0006920FFF73DFF41F8302001EBC0010022DC
:1031E0004A718A7101220A7110BD0000B40A0020E0
:1031F00010B5052801D35A2106E00A4901EBC000A9
:103200000179012903D05B216920FFF721FF417972
:103210008279491CC9B28A4200D04171BDE8104090
:10322000FFF774BFB40A002070B505250E4E0F4C91
:1032300016E0217806EBC1000279012A08D1427913
:1032400083799A4204D04279827156F831008047DE
:103250002078401CC0B22070052801D300202070C7
:103260006D1EEDB2E5D270BDB40A002069000020E9
:1032700000B500F0B2FD40B900F0B9FD28B900F08A
:10328000CDFD10B900F0D4FD08B1024800BD0248E0
:1032900000BD00000C05004000E7014010B500F043
:1032A000C7FD30B3EFF31080C8B1002172B61248E9
:1032B00002680368C2F3001243F0100303604FF08A
:1032C000E023D3F80042D3F804321C4300D040BFBF
:1032D00020BF00BF00BF00BF00BF12B105E0012149
:1032E000E4E7026822F010020260002900D062B612
:1032F00010BD20BF10BD000010ED00E0094810B562
:103300008178042908D010290AD0202908D040F259
:10331000B1116B20FFF79CFE1021817037F0B2FDD8
:1033200010BD0000580000200B4810B5017831B1E5
:10333000EFF3108472B68178102905D008E040F2CE
:10334000FF216B20FFF784FE08218170FEF746FD08
:10335000002C00D162B610BD5800002070B5124C90
:10336000207858B1EFF3108572B6607948B1022821
:1033700009D04FF432716B20FFF76AFE40F2B5219D
:10338000F9E7012003E0A1780020042901D0607151
:1033900002E0607137F06EFD05B962B6E078BDE815
:1033A0007040FFF725BF0000580000200E4810B500
:1033B000017859B1EFF3108172B642794AB1012A0E
:1033C00009D04FF43C716B20FFF742FE4FF4387187
:1033D000F9E7022200E00022427101B962B6C0782A
:1033E000BDE81040FFF704BF5800002010B5134C93
:1033F000207810B140F272211DE0002060700120A1
:10340000A0700F484FF4C851016005210181B72118
:10341000418141F2941141600A48FFF7CBFEE07010
:103420000948FEF7B7FC2071202802D00120207047
:1034300010BD40F281216B20FFF70AFE58000020EA
:10344000EC0A002071350000993400000E488178A4
:10345000042901D000207047807980B10B48011DFC
:10346000D1F84015D0F80405081A401E084920F08C
:103470007F40A0FB0101C00B40EA41407047054876
:1034800001684089081A70475800002000B00040C9
:1034900040420F00EC0A002070B5324C2279904275
:1034A00002D040F2C71125E02F4ED6F804050025C2
:1034B000082931D2DFE801F030043A3A211C4B40B0
:1034C0000121022000F0FAF8607858B10420A070C1
:1034D00026480068A060A571607902283ED037F0C8
:1034E000C9FC3BE02020A070BDE87040FEF776BC30
:1034F0004FF4FD716B20FFF7ABFD607800280BD017
:10350000A078042809D04FF0E0210220C1F8800102
:10351000BFF34F8FBFF36F8F70BD00F071F810B124
:10352000D6F84401B0B90BF0B3F970BD0121022007
:1035300004E00120A07070BD0121282000F0BEF839
:1035400060780028F5D0BDE8704000F095B800F034
:1035500057F818B1BDE87040FFF7D0BEBDE8704025
:1035600000F056B85800002000B00040EC0A0020DF
:1035700070B5EFF3108472B6204D00206979687140
:10358000C1B3012906D0022918D084F310884FF462
:10359000C97128E084F31088687810B140F23F11B7
:1035A00021E00021142000F089F801206870A8783B
:1035B000012821D1BDE8704000F05EB8697849B1BA
:1035C0006870A878082815D007DC022812D00428D3
:1035D00007D10BE04FF4A87105E0102806D0202891
:1035E00008D04FF4B6716B20FFF732FD2020A87091
:1035F000FEF7F4FB84F3108870BD00005800002033
:1036000002488079012800D000207047580000202F
:1036100070B50420FDF7DAFF154D2968814200D806
:10362000084606460421FDF7DFFE124C012130B1A9
:10363000012818D04FF499716B20FFF709FD286815
:10364000B042A06806D1FEF76BFC2868A168084468
:10365000A06070BD3044A060A1716989401ABDE8C6
:103660007040FEF75DBCA1716889A168081AF6E791
:10367000EC0A0020580000200E4810B5002101601F
:1036800001228160027001810421817200F1100128
:103690000A6842604968C160074802218170054993
:1036A0000079FEF71DF9002803D1F5216B20FFF703
:1036B000CFFC10BDDC0A0020580000200B4A10B5DA
:1036C000927812B1531E1A4201D0CF2109E021B1E4
:1036D0000240900608D1D42103E08243900603D132
:1036E000D8216B20FFF7B4FC10BD0000580000206B
:1036F0007D4000006B400000774000006540000006
:103700006340000061400000834000007140000001
:103710005B40000053400000574000004D40000057
:1037200001480068C06A004764000020014A12682E
:10373000126A1047640000200149096809690847B6
:103740006400002001480068C06800476400002051
:10375000014A12685268104764000020014800685E
:103760008068004764000020014A12681268104710
:103770006400002030B4034C2468A469A44630BC23
:10378000604700006400002070472DE9F0410D0003
:1037900004464FF002064FF0010708D02878C8B160
:1037A000012806D0022813D003283AD115E0077764
:1037B0000EE06868C82803D30421FDF715FE08B1A0
:1037C000002607E02046696800F036F9012601E08E
:1037D000FCF7AAFE3046BDE8F08120780028F7D13A
:1037E0006868FCF773FEE0B16968087828B1A078D2
:1037F000052807D040F2791110E0204600F024F9A6
:103800006770E5E7204600F037F9E07804F1080139
:1038100000F009F80028DBD140F27B116A20FFF7A5
:1038200017FC2777D4E7FEF75BB82DE9F0410D468A
:103830000746FCF7E1FE0646FF2809D0FCF7D0FE5C
:10384000040008D0E278BA4208D040F29D11F0E0BE
:1038500040F29511EDE04FF4CC71EAE00027022030
:10386000092D77D2DFE805F0050D2A2A57607893F5
:103870008200A07804286ED003286CD040F2A111F9
:10388000D7E0A078042804D0032802D040F2A51184
:10389000CFE00520A0702777207880BB002120464C
:1038A00000F0CAF8207A012804D06069A0610021E4
:1038B000626841E0E078FDF717FFF7E7A178042997
:1038C00004D0032902D040F2C311B2E0227822B121
:1038D0002146304600F0ECF8A2E0042900D0012097
:1038E000A0706268022D0BD0062130469047002858
:1038F0006AD00078002867D040F2DD1199E031E00D
:1039000005213046904700286FD0007800286CD001
:103910004FF4EC718DE0A078052802D04FF4F271DD
:1039200087E00221626807E0A078052802D04FF402
:10393000F5717EE0626801213046904701462046DD
:10394000FFF723FF02286BD0E8B3012862D040F2D2
:103950002A216EE05BE065E0A078052802D04FF4F4
:10396000F87166E0BDE8F041FCF7DEBDA0780528FF
:1039700002D040F2F5115CE062680A2130469047BF
:1039800001462046FFF701FF4FF4FC7151E0A1789A
:10399000052906D063780BB1032902D04FF4FE71DC
:1039A00047E0217829B121463046BDE8F04100F0DA
:1039B0007FB8217F81B12777A070626808213046E7
:1039C0009047002801E028E02AE00ED00078002887
:1039D0000BD04FF402712CE0617859B104F1080169
:1039E0001046FFF720FF10B16770BDE8F0814FF47B
:1039F00003711EE0A07062680721304690470028DE
:103A0000F3D000780028F0D04FF4057111E040F2B7
:103A100019210EE0042162688EE7032162688BE7BA
:103A2000002DE2D100F0EFF800680028DDD04FF45F
:103A30000D716A20FFF70CFB0246037AC068084448
:103A4000D0605938FEF76CBA012202720022C274AB
:103A50000A796AB1002202824A795AB10422827438
:103A60008A686C32C260C968416103218170704705
:103A70002B22F0E70322F2E710B504460020207263
:103A8000E074087980B100202082487970B1042068
:103A9000A074C8686C30E0608968A069FDF7EEFD2D
:103AA00060610420A07010BD2B20EDE70320EFE73C
:103AB00070B505460C46C878FEF74AF978B120463D
:103AC00000F010F86268092128469047002808D0C5
:103AD0000078002805D0DB216A20FFF7B9FAD7214A
:103AE000FAE770BD0021817001704170704770B5B8
:103AF000FCF770FD0546002406E02046FCF770FD4B
:103B0000FFF7F0FF641CE4B2AC42F6D370BD2DE9C0
:103B1000F0410D46FCF764FD040007D0A0786FF07B
:103B20002206012806D0022810D103E06FF0010020
:103B3000BDE8F0816FF0150755B12846FCF7C6FCCB
:103B400030B1287830B1A078022808D03046EFE7AD
:103B50003846EDE729462046FFF776FF03E0294681
:103B60002046FFF789FFE07804F10801FFF75BFECC
:103B700008B10020DCE740F2AE216A20FFF768FAC6
:103B800010B50446FCF72CFD010004D008786FF056
:103B9000220268B902E06FF0010010BD887838B1E8
:103BA000022807D0012805D001200870002010BD90
:103BB000104610BD2046FFF77BFFF7E72DE9F041E7
:103BC0000E460746FCF706FD054600240AE020469F
:103BD000FCF706FD807818B14FF0FF30BDE8F081AA
:103BE000641CE4B2AC42F2D3082E02D96FF0150087
:103BF000F4E717B13146384601E000210846BDE838
:103C0000F041FCF7D5BC0020FEF73EBE410A43F66A
:103C100009525143C0F3080010FB02F000F5807018
:103C200001EB50207047FDF773BD002809DB00F061
:103C30001F02012191404009800000F1E020C0F8FE
:103C40008012704700280DDB00F01F020121914017
:103C50004009800000F1E020C0F88011BFF34F8FD1
:103C6000BFF36F8F704770B50246002000291DD04A
:103C7000A2FB0101400A40EAC150490A401C41F13F
:103C8000000140F2A172831841F100015B1C41F177
:103C900000040021D3F1FF33A14103D271216D2033
:103CA000FFF7D6F900F5F460B0FBF2F070BD4058B4
:103CB000002800D001207047D0F80C24D0F80C0464
:103CC00002F00102C00303D58A4201D101207047EE
:103CD0000020704710B501218807FFF777F9002809
:103CE00000D0012010BD4FF08040012101607047DD
:103CF0004FF08041D1F81824D1F8181402F00302D3
:103D0000C90303D5824201D10120704700207047CA
:103D100010B500214FF08040FFF758F9002800D07F
:103D2000012010BD002809DB00F01F020121914095
:103D30004009800000F1E020C0F8801270470028A0
:103D40000DDB00F01F02012191404009800000F1CD
:103D5000E020C0F88011BFF34F8FBFF36F8F704723
:103D600000100200FA000000ECC5C04A5DD7C5D8BB
:103D700079956542FA9BE0EFEDCF105F002809DBF3
:103D800000F01F02012191404009800000F1E02075
:103D9000C0F880127047EFF3108172B60278012AE2
:103DA00001D0012200E000220123037001B962B6B4
:103DB0000AB1002070476FF02200704700210170A7
:103DC00008467047EFF3108172B60022027001B905
:103DD00062B600207047FFF727BA4FF08050D0F846
:103DE00030010F2801D000207047012070474FF0AC
:103DF0008050D0F830010A2801D0002070470120FF
:103E0000704700B5FFF7F3FF20B14FF08050D0F8B6
:103E1000340108B1002000BD012000BD4FF08050EA
:103E2000D0F830010E2801D00020704701207047E3
:103E30004FF08050D0F83001062803D0401C01D04C
:103E400000207047012070474FF08050D0F83001BB
:103E5000082801D00020704701207047F0B480EAA4
:103E6000010C03461CF0030F3CD113F0030F0BD0E1
:103E7000002A04BFF0BC704711F801CB03F801CB56
:103E8000521E13F0030FF3D1032A4FD9B2F1004FA2
:103E90004CD2C2F1000C4FEAEC740CEB947C4FEA6C
:103EA000AC0CCCF1000CBCF1000F1BDD0D1F1C1F76
:103EB0001CF0010F03D055F8046F44F8046F5FEA5B
:103EC0006C0607D06F68676055F8087F44F8087F74
:103ED000761EF7D101EB8C0103EB8C03CCF1000CC7
:103EE00002EB8C02002A04BFF0BC7047B2F1004F15
:103EF00026D2002ADCBFF0BC7047491E5B1E12F0C0
:103F0000010F03D011F801CF03F801CF521004BF05
:103F1000F0BC704791F801C083F801C011F802CFDE
:103F200003F802CF521EF5D1F0BC7047042AD9D352
:103F300051F804CB121F43F804CB042AF8D2D1E77E
:103F400011F801CB03F801CB521EF9D1F0BC704738
:103F500070B4034601F0FF0C10F0030F09D0002AE3
:103F600004BF70BC704703F801CB521E13F0030F5F
:103F7000F5D1C9B241EA012141EA0145032A39D903
:103F8000B2F1004F36D25142CC1701EB9471891037
:103F90004E42002E11DD191F16F0010F18BF41F817
:103FA000045F741004D04D6041F8085F641EFAD1BC
:103FB000714203EB860302EB8102002A04BF70BC4E
:103FC0007047B2F1004F1DD2002ADCBF70BC7047B1
:103FD000591E12F0010F18BF01F801CF521004BF93
:103FE00070BC704781F801C001F802CF521EF9D1B0
:103FF00070BC7047042AE0D3121F43F8045B042A04
:10400000FAD2DAE703F801CB521EFBD170BC70473D
:1040100000B50246FFF71AFA904201D9012000BD0F
:10402000002000BD08B50B380A460F2801D93721FA
:1040300006E0C1B26B460420FCF72EFA18B140210D
:104040006420FFF705F89DF9000008BD4FF0FF3030
:10405000704700207047002070474FF0FF307047D6
:10406000704770474FF0FF3070474FF0FF30704798
:104070000021017070474FF0FF3070474FF0FF3064
:1040800070470020704700001FB501400B071ED588
:10409000104BB3F87C30ABB90A2010F0CDFB424294
:1040A000A8B11046039207F0C1FDF22101910A491F
:1040B00000910346039A0948452137F038FB042054
:1040C00039F0F2FF05B05DF804EB10F0FFBB05B06E
:1040D0005DF804FB702C0020986504007C650400EA
:1040E0001FB50446022139F07AFA204606F0F8F9A5
:1040F000424288B11046039207F098FD40F2222117
:1041000001910A4900910346039A0948452137F075
:104110000EFB042039F0C8FF2CB1204604B0BDE8E6
:10412000104015F03BBE04B010BD00BF9865040000
:104130007C65040030B54B4885B005F0F5FF0246BC
:1041400018B14948452137F0F2FA05F0A9FF0246B7
:1041500018B14648452137F0EAFA45480DF0EEF926
:1041600020B9434A4348452137F0E1FA1BF05CFB94
:10417000414B424CC0F89C3041483AF084F940F23F
:10418000031340492380062240F60A33601D6380F2
:1041900037F085FF06233C492371172204F12600DE
:1041A00037F07DFF1723394984F82530082204F1C0
:1041B000470037F074FF0823354984F84630102251
:1041C000042304F1590084F8573037F068FF1023B6
:1041D00084F858304FF40043A4F88030A4F88230BB
:1041E000ADF80A30ADF80C300DF10A0300254FF69A
:1041F000FF7200930123A4F87E2040F202411A4688
:1042000001950A2084F86950A4F87C50A4F88450E1
:10421000ADF80E501AF07AFF03AB0093012202238F
:1042200040F2024101950A201AF070FF0DF10E03D1
:1042300000930122032340F2024101950A201AF063
:1042400065FF06F06FFD013505F0010148BF4942E9
:10425000002006F001F800214FF400400FF048F86C
:10426000F1E700BF89400000A6650400C9650400AD
:10427000E9650400EF650400F5B60300702C00202A
:10428000D5020020046604000B66040023660400C7
:104290002C660400436803F00303022B70B5044648
:1042A0000E46816010D0032B04D0012B0FD10025C6
:1042B000284601E0056800200023636010B1314604
:1042C00010F004F9284670BD00680025F4E70549A0
:1042D0000548452237F02BFA0248452137F021FDE9
:1042E0000025E8E741660400646604000B680133BA
:1042F0000B60014B1B68184798000020014B1860A9
:10430000704700BF9800002007B50B460021024609
:104310000191034801A900F0AFFC03B05DF804FB74
:10432000ED4200002DE9F04F2DED028BB0F81C900E
:1043300083B019F0080F044601921FD001290CBF69
:1043400049F0100949F02009A0F81C9004F114006C
:104350000FF024FA40B99C499C48A72237F0E7F9AE
:104360009948A72137F0DDFC019B83F31188BFF347
:104370006F8F03B0BDEC028BBDE8F08F944FDFF878
:104380004C82DFF844A209F00709022906D1204631
:1043900037F0F5F90028D9D0012869D1D4F818B040
:1043A000A38BBBF1000F1CDA00262568009623F0D2
:1043B0000703C4E9006643F00103A383A38B03F062
:1043C00007024A4508EE102A03D0A268002A40F0EE
:1043D00001811DB9009A002A00F041814FF00009C7
:1043E000FAE003F00702511F012923D8002123F02E
:1043F0000703062A25689BB2C4E900110CD18D423F
:104400002A4638BF0A462AB1E18B12680131E1839E
:10441000002AF8D143F00203A383204637F0AFF916
:10442000002800F0CC80A38B43F02003A38300235B
:104430000093C3E7042A0FD123F007039AB2A283A3
:10444000204637F09CF9002800F0BB8042F02002A3
:10445000A28300250095B1E73946404640F2191283
:1044600037F065F940F21911384637F05AFCF0E799
:10447000032832D1B9F1000F0AD0394640464FF433
:10448000AA7237F054F94FF4AA71384637F049FC54
:10449000236853B93946404640F2551237F047F980
:1044A00040F25511384637F03CFC23691B680093F5
:1044B00053B9394640464FF4AC7237F038F94FF4EF
:1044C000AC71384637F02DFCA38B23F0070343F083
:1044D0000603A3830025AB4670E704282FD1B9F16A
:1044E000020F0AD03946404640F25B1237F01FF9FE
:1044F00040F25B11384637F014FCE38B53B1394678
:1045000040464FF4AE7237F012F94FF4AE713846B0
:1045100037F007FC23695B68009353B9394640467E
:1045200040F25F1237F003F940F25F11384637F07E
:10453000F8FBA38B23F0070343F00403C9E7052826
:104540002FD1B9F1010F0AD0394640464FF4B1726C
:1045500037F0EDF84FF4B171384637F0E2FB2368DD
:1045600053B93946404640F2631237F0E0F840F262
:104570006311384637F0D5FB23699B68009353B924
:10458000394640464FF4B37237F0D1F84FF4B37167
:10459000384637F0C6FBA38B23F0070343F005032F
:1045A00097E740F269123946404637F0C0F80025D7
:1045B00040F26911384637F0B4FB00958BE7009064
:1045C000FCE6054646E700BF9E66040064660400FC
:1045D0007C6604004FF0010943F00803A38304F153
:1045E0001403184608EE903A0FF0D8F840B9514637
:1045F0004046A72237F09BF8A721504637F091FBA1
:10460000019B83F31188BFF36F8FB9F1000F35D190
:10461000002D49D1009B13B12C49204698474FF0FB
:104620004003EFF3118B83F31188BFF36F8F18EE04
:10463000900ACDF804B00FF0A3F840B951464046B7
:104640007C2237F074F87C21504637F06AFB18EE74
:10465000900A0FF0B3F8A38B23F00803A383A38B76
:10466000DA062AD523F01003A3830121B4F81C90A5
:1046700009F0070900297FF488AE67E6A1680029E0
:10468000C6D00B68002B38BF002399464B6818EE44
:10469000102A1E4620465B46B047B9F1000FB7D03E
:1046A000D9F800304946EDE7294618EE102A5B4656
:1046B00020462D6837F07FF8AAE713F020011EBFCF
:1046C00023F02003A3830221D0E700BFD1460000DE
:1046D000F8B504460D4600F114064FF04003EFF321
:1046E000118783F31188BFF36F8F30460FF048F8BE
:1046F00040B90A490A487C2237F019F807487C215A
:1047000037F00FFB30460FF059F8A5613A462046C6
:104710000121BDE8F840FFF705BE00BF9E6604001A
:10472000646604002DE9F04704460F4637F059F857
:10473000051E54DB04F114094FF04003EFF3118A16
:1047400083F31188BFF36F8F48460FF019F840B913
:10475000334934487C2236F0EAFF31487C2137F077
:10476000E0FA48460FF02AF8E38BA28B4FF6FF7170
:104770008B4202F007064AD0022E1FD10133E38399
:1047800035464FF0010848460FF008F840B9244973
:104790002448A72236F0CBFF2148A72137F0C1FAE1
:1047A0008AF31188BFF36F8FB8F1000F17D0002381
:1047B00032463946204636F0FEFF10E0930701D01E
:1047C000062E0FD100233B606368EBB9C4E9007784
:1047D0003546F6B9524602212046FFF7A3FD28468A
:1047E000BDE8F087052E17D0012E0AD00E490D48DE
:1047F00040F2C51236F09BFF0B4840F2C51137F06E
:1048000090FA6FF0040504E01F606760E0E76FF066
:104810000A054FF00008B6E76FF02205F9E700BF80
:104820009E660400646604007C66040070B504465D
:1048300000F114054FF04003EFF3118683F3118864
:10484000BFF36F8F28460EF09BFF40B922492348E3
:104850007C2236F06CFF20487C2137F062FA284633
:104860000EF0ACFFA38B03F00703022B17D0012B34
:104870000CBF6FF004046FF0220428460EF08EFF88
:1048800040B915491548A72236F051FF1248A72113
:1048900037F047FA86F31188BFF36F8F17E0E38B89
:1048A00053B90F490D484FF4F67236F040FF0C48EB
:1048B0004FF4F67137F035FAE38B013B9BB2E3839B
:1048C0003BB9204632460221FFF72CFD0224204648
:1048D00070BD0224D1E700BF9E6604006466040038
:1048E0007C6604002DE9F0410E460546002848D0BC
:1048F000002946D000F114074FF04003EFF3118870
:1049000083F31188BFF36F8F38460EF039FF40B93B
:104910001D491E487C2236F00AFF1B487C2137F0D7
:1049200000FA38460EF04AFF31462846AC8B36F086
:104930000BFF18B304F00704231F022B0AD91449F4
:10494000124840F22A2236F0F2FE114840F22A21A3
:1049500037F0E7F938460EF021FF40B90A490B4815
:10496000A72236F0E4FE0848A72137F0DAF988F3E9
:104970001188BFF36F8F2046BDE8F0816FF04404CB
:10498000E8E76FF01504F6E79E660400646604002D
:104990007C6604002DE9F041164EDFF85C80054688
:1049A0004FF0FF324FF0FF3328460DF04DFC044628
:1049B0000028F5D0476847B9314640461C2236F0FA
:1049C000B6FE1C21304637F0ACF9BFF35B8F04F123
:1049D000080353E8002F22F0010143E800100028EB
:1049E000F7D1BFF35B8FD30701D52046B8470EF050
:1049F0006DFBD5E7C46604006466040070B5002949
:104A000039D00568AB68B3F5004F2CBF08240424E7
:104A10000C1B641BE40801222146284636F00DFFDA
:104A2000C30708D4144915489A2236F080FE12486C
:104A30009A2137F076F92146284636F014FF2618D9
:104A400000223146284636F0F8FE301A844208D05B
:104A500009490A48A22236F06AFE0748A22137F027
:104A600060F921462846002236F003FF2146BDE8C2
:104A7000704037F044B870BDE76604006466040017
:104A80002DE9F84301F1FF3919EA010F0568804665
:104A90000F46144608D032493248FC2236F047FE11
:104AA0002F48FC2137F03DF9AA68B2F5004F2CBF22
:104AB000082304239F4205D821464046BDE8F84319
:104AC00037F061B81CB900263046BDE8F883B2EB78
:104AD000D40FF8D93919C91A284636F0E6FE01462E
:104AE000284636F06DFF80460028ECD0AB68B3F561
:104AF000004F2CBF0823042303EBC0062E447F4243
:104B00004E443E403444F31A07345B1B24F0070440
:104B1000641BB0EBD30F4FEAD3074FEAE40408D28B
:104B200001463A46284636F0F5FE4146284636F01C
:104B30008AFF3946284636F096FE3844844208D229
:104B400039462846224636F0E5FE2146284636F00C
:104B50007AFF01223946284636F08BFEB4E700BFC3
:104B6000E766040064660400B2F5802FF8B50746D6
:104B70000D4616460ED2042A0AD83D493D484FF448
:104B8000B67236F0D4FD3A484FF4B67137F0C9F832
:104B9000042200E00822B61AEC1D354424F0070474
:104BA00025F007052D1B172D4FEAD5060AD83049E9
:104BB000304840F2751236F0BAFD2D4840F27511BA
:104BC00037F0AFF8002200233C60C4E90023002343
:104BD000E3603146A660204636F071FE0121850073
:104BE000471C204636F061FE1B35ED082844B042D4
:104BF0000AD31F491F4840F2811236F098FD1C4825
:104C000040F2811137F08DF8002304F110021946AB
:104C1000BB4229DB2A462046002136F042FE771BA4
:104C200020460122002136F024FE3A46294636F07D
:104C300038FE2B4629462046002236F009FE314632
:104C40002046002236F02DFE3B463146204600220B
:104C500036F0FEFD31462046012236F00AFE294696
:104C6000BDE8F84036F0EFBE42F8041B0133CFE751
:104C7000E7660400646604002DE9F04FA5B088469D
:104C8000039091461C46002599F8000010B928466B
:104C900000F015BE09F101032528099307D041460C
:104CA000039B98470028C0F20A86013545E2182286
:104CB000002116A837F01EFA99F80130252B79D07B
:104CC000002209981646964617469446014610F863
:104CD000013B2B2B00F09E8000F29580202B00F0F2
:104CE0009B80232B00F09B80BCF1000F05D09DF82A
:104CF000600040F004008DF860002FB19DF8600066
:104D000040F008008DF86000BEF1000F05D09DF85E
:104D1000600040F010008DF860002EB19DF860003A
:104D200040F020008DF860002AB19DF8602042F02C
:104D300040028DF860209DF8602002F04400442875
:104D400003D16FF386128DF860209DF860202A2B26
:104D500042F080028DF860207CD19DF8612042F005
:104D600001024B1C8DF861201A782E2A9DF86120D3
:104D70000CBF0121002161F341028DF8612075D142
:104D80005A782A2A6BD0013300210A26184610F8D7
:104D9000012BA2F13007092F40F2AA809DF8602074
:104DA0001A91C2F3400040EAD17161F341028DF8DB
:104DB00060205BE009F1020209928DF863309DF8F2
:104DC0006130DE0740F16F8154F8042B0892002A0D
:104DD00008DA9DF8602042F004028DF86020089AFD
:104DE00052420892580740F1668154F8047B002F24
:104DF00080F265819DF861306FF341038DF8613079
:104E00004FF0FF375BE12D2B0BD0302B7FF46CAFD5
:104E100001225BE7012759E74FF0010E56E7012613
:104E200054E74FF0010C51E70CFB0202303A3346D5
:104E30001E4616F8010BA0F13007092FF4D999424C
:104E400092D09DF860101992D20F62F341018DF853
:104E5000601089E70B4600224FF00A0CE8E79DF846
:104E6000612042F004028DF861200233194611F8E6
:104E7000012B6C2A5CD040D8682A46D06A2A61D0BF
:104E80004C2A67D019460B4613F8012B0993782A50
:104E90008DF8632000F2DF80572A68D8412A04D0B9
:104EA000A2F14503022B00F2D6809DF8623002F099
:104EB000DF020421A2F1410A61F30203DAF10002E8
:104EC0009DF861108DF8623042EB0A0262F3C7115F
:104ED0000A068DF86110CBB200F1E38003F078028E
:104EE000182A40F0B5806FF3C6038DF861309CE05E
:104EF00006FB01213039034648E7742A26D07A2A76
:104F0000C0D19DF8613006220DE05A78682A9DF8DC
:104F1000612006D1012161F3C6028DF86120991C40
:104F2000B1E71346022262F3C6038DF86130AAE7A7
:104F30005A786C2A9DF8612001D10421EBE71346D1
:104F40000322F0E79DF861300522ECE79DF861301F
:104F50000722E8E7BDF8603023F4F04323F00203B2
:104F600043F4804343F00203ADF860308BE7A2F1D5
:104F70005803202B6FD801A151F823F02F500000C7
:104F80005750000057500000575000005750000085
:104F90005750000057500000575000005750000075
:104FA000AB4E0000575000002F5000000150000091
:104FB000AB4E0000AB4E0000AB4E0000575000005F
:104FC000015000005750000057500000575000009B
:104FD00057500000655000002F5000008550000021
:104FE00057500000575000008550000057500000F7
:104FF0002F50000057500000575000002F50000065
:105000009DF86230012161F302038DF862309DF852
:10501000613003F07803402B02BF9DF8601041F02F
:1050200001018DF86010632A05D0002306E09DF889
:1050300062300221E7E7003B18BF01239DF86020A2
:10504000C2F340010B4363F341028DF86020B6E6E2
:1050500013F0380FE9D09DF8603043F001038DF86C
:105060006030E2E79DF86230032262F302038DF8BC
:1050700062309DF8613003F07803A3F140077B4272
:105080007B41DBE79DF86230032262F302038DF877
:1050900062309DF8613013F0780F14BF01230023B4
:1050A000CCE70123CAE79DF96020002AB4BF199A12
:1050B0004FF0FF3295E699077FF5A2AE1A9F0023C5
:1050C000CDE919339DF8623003F00703042B09D1B1
:1050D0009DF861309A0705D49DF96130002BB4BF6B
:1050E0000D2706279DF862309DF8611003F0070335
:1050F000012BC1F3C30136D1CB1E042B20D8DFE82E
:1051000003F00307071F1F0054F8042BD31704E014
:10511000073424F00704F4E80223CDE916239DF8B0
:105120006060B30755D0099B03984A46414636F064
:10513000DFFD0028C0F2C3830544DDF82490A3E519
:1051400054F8042B01294FEAE273CDE9162305D167
:105150009DF85830169300231793E0E70229DED11B
:10516000BDF95820D2E7022B23D1CB1E042B13D834
:10517000DFE803F0030A0A121200226816920023E5
:10518000201D17930446CAE7073424F00700F0E80F
:105190000223CDE91623F5E754F8043B16930129C1
:1051A0004FF000031793D3D00229B8D1BDF858307F
:1051B000D0E7042B07D1073424F00704F4E80223D6
:1051C000CDE91623ABE7032B04BF54F8043B169339
:1051D000A5E79DF86390B9F1780FAED8B9F1570FF4
:1051E00000F2A680B9F1250F00F0EC80B9F1240F90
:1051F000A3D9B9F1410F03D0A9F14503022B9CD8E3
:10520000DDE91623002A73F10001C0F2D3813107D2
:1052100000F1D28116F0100618BF2026C3F30A5BF6
:10522000C3F3130306920793DDE90623CDE91223A6
:10523000BBF1000F40F0C281DDE90632134314BF19
:105240004FF0010C4FF0000C0799CB020699CA02EF
:1052500043EA515358464BEA02010C91C1171943D6
:105260000D91DDE90C01B9F1460F08BF4FF0660959
:105270000143CDE9122300F01482BCF1000F40F08D
:10528000D481129B0493139B43F000430593DDE903
:105290000423CDE912230023ABF2FE3B1A4605217D
:1052A0001BF1020FC0F2CA811BB1DDE90401CDE997
:1052B0001201BBF1000FDDE9123100F3DA8113991D
:1052C000129BCBF104000BF11C0B01FA0BFBA0F1BC
:1052D000200CC34021FA0CFC43EA0B0343EA0C0305
:1052E000C140CDE9123109F0DF03472B40F0E081E6
:1052F000D01C02DB974280F2D781A9F10209002F6E
:105300005FFA89F900DD013F9DF86030990600F1F0
:10531000CF81002FD4BF00230123B9F1660F0E9374
:1053200040F0C881BB1840F1C6814FF0000AC6E1C9
:10533000A9F15803202B3FF600AF01A252F823F049
:10534000555500003B5100003B5100003B5100000F
:105350003B5100003B5100003B5100003B5100001D
:105360003B510000015200003B510000F15300008E
:10537000F5540000015200000152000001520000EB
:105380003B510000F55400003B5100003B51000030
:105390003B5100003B5100008B550000555500006B
:1053A000595500003B5100003B510000CB53000019
:1053B0003B510000555500003B5100003B5100009F
:1053C00055550000414648466AE4002FDDF85890E4
:1053D0000ADB3946484636F026FE09EB000A00266D
:1053E000B9F1000F0CD1A8E6484636F015FEF4E7F7
:1053F000169B8DF8743000260DF1750A0DF17409B5
:10540000AAEB090206B101329DF86200C30640F121
:105410004B8202321999089B40060A4444BF1A99EC
:105420005218002B25DD9B1A9DF860205107C2F30E
:10543000800B00F14B82570640F14482002E00F0B1
:10544000438208934146039B304698470028C0F2A8
:105450003682089B01355E463027089303EB050B27
:10546000089BABEB0305002B03F1FF33089300F31C
:105470001F823EB1039B4146304698470028C0F248
:105480001E8201359DF86220560640F17D829DF90D
:105490006120002AC0F21C82A5EB090599F80000E2
:1054A000A0F13002092A4F4605EB090B09F1010969
:1054B00040F23E829DF86220199E900608D406EBC9
:1054C0000B09002EA9EB060B06F1FF3600F337821D
:1054D00038782E280BD1039B414698470028C0F20C
:1054E000EE81002E0BF1010B00F331820137ABEBA3
:1054F000070B37E230072BD416F0100618BF202612
:10550000DDE91623002A73F1000105DA524263EB4C
:105510004303CDE916232D260DF18D030093DDE91C
:1055200016011DAB18AA36F098FB8146002F0DF12D
:105530008D030BDB9DF86010A3EB09026FF386115E
:1055400097428DF8601001D9BF1A19979A4647E71C
:105550002B26D5E70026DFE71698002800F09E816D
:105560000DF18D03009318AA1DAB002136F075FBD9
:10557000BDF8623003F0EF0343F4F04343F010034F
:105580008146ADF862300026D0E7169B07293FF62A
:10559000D4ADDFE801F00D04060D08080D0D1D70F7
:1055A000CBE51D80C9E52846E917C3E90001C4E53C
:1055B0001D60C2E52D2631E62B262FE640F2FF7353
:1055C0009B452DD1DDE906231343A9F1410918D1EB
:1055D000B9F1190F95BF44F6496346F66963ADF812
:1055E0007430ADF8743094BF462366238DF876305E
:1055F0009DF860306FF386138DF860300DF1770AF7
:10560000FCE6B9F1190F95BF44F24E1346F26E1342
:10561000ADF87430ADF8743094BF4E236E23E5E7D7
:105620004FF0000C10E60BF1FF3B92185B41002A93
:1056300073F10001F7DACDE9122322E6049B059805
:105640005B0843EAC0734008B0F1333FDC46CDE964
:1056500004300BF1010BF1D2A3FB01ABCDE904AB9C
:10566000059B4843C31805930CF1020B013A012333
:1056700016E6023341F1000112A8CDE912310E9273
:1056800036F0B4FA0E9ADDE912010BF1FF3B01325C
:1056900000184941002871F100030BF1FF3BF7DAD4
:1056A00005E6002293460AE6BF1A4FF066092BE68C
:1056B000002332E67B1C102BA8BF10239A46102132
:1056C000119100204FF00061CDE914010AF1FF3A79
:1056D000BAF1FF3FDDE914101FD1129BCB180A93DA
:1056E000139B40EB03030B93DDE90AAB6FF07041B2
:1056F0004FF0FF30594508BF50451AD35046594620
:10570000CDE91201B9F1660F53D1002A20DC302314
:105710008DF874300DF1750A2BE0490841EAC0712B
:105720004008CDE9141014A80F9236F05FFA0F9AD2
:10573000CCE70A9B0F920B9A5B0843EAC2735108AD
:1057400012A8CDE9123136F051FA0F9A0132D9E799
:105750000DF1740A1199002909DD11A912A80F92FF
:1057600036F064FA0F9A0AF8010B013AF2D1199255
:1057700000229DF86010880601D4002F3FDD5346BB
:105780002E2103F8011B92B1002F75DD5142B94261
:10579000A8BF39469DF8620019910029A7EB0107BF
:1057A000D4BF0021012161F345108DF862009A46B3
:1057B00020E011A912A80F9236F038FA0F9A9DF83E
:1057C00060308DF87400302818BF02F1FF3299065E
:1057D00001D4002F52DD2E238DF875300DF17603A4
:1057E000E5E711A912A80F9236F020FA0F9A0AF8ED
:1057F000010B013F002F02DD11990029F1DC0E9B06
:10580000002B3ED11A9709F0DF01452922D1002A49
:105810005046BABF52422D212B21632A00F8029B29
:105820008AF801100ADD642792FBF7F101F1300CD0
:105830000AF103008AF802C007FB11220A278246F8
:1058400092FBF7F107FB112201F1300C30320AF81C
:1058500002CB4270199A002A1EDC1A9A002AD4BF81
:10586000002201229DF8621062F3861100228DF859
:1058700062108AF80020C1E59A46C0E70DF1750A6A
:10588000BDE700211A9150461AF8011D3029FAD0BF
:105890002E2918BF8246B6E70122E3E7DFF838A1D8
:1058A0000646AAF10509ABE5070748BF0132B1E595
:1058B000039B4146384698470028BFF6D1AD25B036
:1058C000BDE8F08F2027C8E53027C6E50893D0E56E
:1058D000A5EB090B4E460BEB090519F8010B7028D7
:1058E00020D11A9A02EB0509A9EB0502002A43DC34
:1058F000534632460398414636F0FAF90028DEDB7B
:10590000089B2844034405469A46AAEB0503002B4E
:105910007FF713AC039B4146202098470028CEDB3D
:105920000135F2E7039B414698470028D2DAC6E7E3
:10593000039B414698470028BFF6B0ADBFE7039BE5
:105940004146302098470028BFF6BBADB7E7039B20
:10595000414630209847013EC0E5039B41469847A9
:105960000028ACDB3E460BEB070517F8010BA0F156
:105970003002092AF1D9B4E7039B41463020984709
:1059800000289CDB0135AFE7D10601D4120706D50C
:10599000039B414630209847002890DB01359DF855
:1059A0006220D30607D59DF86300039B41469847C4
:1059B000002884DB0135199E2E44721B002A02DC6C
:1059C00053464A4696E7039B4146302098470028B5
:1059D000FFF675AF0135F0E70D670400094B30B5F0
:1059E0001D68094B1C6800239D4202DC002108460B
:1059F00030BD1A0104EB0311A25C8242F7D00133DF
:105A0000F2E700BF586004009C000020084B1B68B0
:105A100010B50C462BB1FFF7E1FF28B12060002044
:105A200010BD6FF00C00FBE76FF00100F8E700BF5E
:105A30009C00002008B506480BF080FD054B18605F
:105A4000054801F00DFC0448FEF758FC002008BD95
:105A500027670400801700205D5A00000A2838B527
:105A6000074D044604D1286883680D215B68984778
:105A700028688368E1B25B689847204638BD00BF5C
:105A8000801700202DE9F0410E4C051BC5F347138C
:105A90000C255D43074605F148000E462044402191
:105AA00036F0B8F9011E08DB074B2C44C4E9103668
:105AB000064B5B59BDE8F041184738463346BDE810
:105AC000F04118479417002077BE0300706004006F
:105AD00038B5CCB2012C054608D9084908487E22C1
